:100000000C9438000C9455000C9455000C94550039
:100010000C9455000C9455000C9455000C9455000C
:100020000C9455000C9455000C9455000C945500FC
:100030000C9455000C9455000C9455000C945500EC
:100040000C9455000C9455000C9455000C945500DC
:100050000C9455000C9455000C9455000C945500CC
:100060000C9455000C9455000C9455000C945500BC
:1000700011241FBECFEFD4E0DEBFCDBF11E0A0E062
:10008000B1E0E2ECF5E002C005900D92AC33B107AF
:10009000D9F721E0ACE3B1E001C01D92A634B2076C
:1000A000E1F70E94D6000C94DF020C94000081B3AB
:1000B000806281BB8FB583648FBD8EB589618EBD33
:1000C00081B38F7E81BB88B3806188BB08958093A4
:1000D00000100895809300120895CF93DF93D0E02D
:1000E00013C08D2F806B0E94670080E00E94670024
:1000F00080E10E946700C0E004C080E00E946A00C6
:10010000CF5FCC23D4F7DF5FD83058F3DF91CF91A6
:1001100008958EEA0E94670081EA0E9467008AEDD6
:100120000E94670082E10E94670088EC0E946700DD
:1001300088EA0E9467008FE30E94670085ED0E94B5
:10014000670080E80E94670081E80E94670080E500
:100150000E94670089ED0E94670081E20E946700AB
:1001600080E20E94670082E00E9467008BED0E949F
:10017000670080E30E9467008DEA0E94670080E0CC
:100180000E94670084EA0E94670086EA0E94670076
:100190008FEA0E94670085EA0E946700089585B78C
:1001A000806885BF80B7806280BF08950E94CF00BD
:1001B0008FE190E00E940C010E94130186E091E023
:1001C0000E946B010E9457000E9489002FEF8FEF61
:1001D0009EE0215080409040E1F700C000000E9466
:1001E0006D0084EA0E9467002FEF8FE791E02150B5
:1001F00080409040E1F700C000C0F6CFCF93C82FF9
:100200008A3019F48DE00E94FE005D9BFECFCCB9D0
:1002100080E090E0CF91089590BD89B988E18AB9D6
:100220008EE880BD089560E070E08EEF90E00E945F
:100230002001009721F090933F0180933E010895A3
:100240000F931F93CF93DF93009731F461157105DE
:1002500019F480E090E03AC08B01EC016EE070E0B0
:1002600081E090E00E949B01FC01892B91F380E8E2
:1002700083830115110571F01387028781E8838359
:1002800080913C0190913D01892B21F4F0933D0137
:10029000E0933C012097C9F0D187C08783818260B9
:1002A000838380913E0190913F01892B71F4F093FB
:1002B0003F01E0933E018091400190914101892BE3
:1002C00021F4F0934101E0934001CF01DF91CF9100
:1002D0001F910F9108950F931F93CF93DF93E09198
:1002E0003E01F0913F01238121FF1BC08C01D0E032
:1002F000C0E0F80181918F0160913E0170913F0152
:10030000DB011896ED91FC911997882331F009953E
:10031000892B79F3DFEFCFEFECCF8AE00995892BBA
:1003200019F08FEF9FEF02C08D2F9C2FDF91CF919F
:100330001F910F9108950F931F93CF93DF93869F83
:100340008001879F100D969F100D1124C8010E94F7
:10035000B701EC01009729F0A80160E070E00E946D
:10036000D802CE01DF91CF911F910F9108950F9385
:100370001F93CF93DF938230910510F482E090E0D9
:10038000E0914401F091450120E030E0A0E0B0E0D0
:10039000309719F140815181028113814817590723
:1003A000C8F08417950769F4109731F012960C93F2
:1003B000129713961C9327C0009344011093450194
:1003C00022C02115310519F04217530718F49A017C
:1003D000BD01EF01DF01F801DBCF21153105F9F097
:1003E000281B390B2430310580F48A819B816115EB
:1003F000710521F0FB019383828304C09093450132
:1004000080934401FE01329644C0FE01E20FF31FC7
:100410008193919322503109398328833AC02091E6
:10042000420130914301232B41F42091020130918C
:100430000301309343012093420120910001309148
:1004400001012115310541F42DB73EB7409104015A
:1004500050910501241B350BE0914201F0914301BD
:10046000E217F307A0F42E1B3F0B2817390778F08B
:10047000AC014E5F5F4F2417350748F04E0F5F1FEA
:1004800050934301409342018193919302C0E0E075
:10049000F0E0CF01DF91CF911F910F910895CF939D
:1004A000DF93009709F481C0FC0132971382128216
:1004B000A0914401B0914501109781F420813181D0
:1004C000820F931F20914201309143012817390771
:1004D00051F5F0934301E093420167C0ED0120E044
:1004E00030E0CE17DF0740F44A815B819E01411561
:1004F0005105F1F0EA01F5CFD383C28340815181E8
:10050000840F951FC817D90759F488819981840FE2
:10051000951F0296918380838A819B819383828336
:100520002115310529F4F0934501E09344013DC0C4
:10053000E901FB83EA8349915991C40FD51FEC1758
:10054000FD0761F480819181840F951F0296E90176
:1005500099838883828193819B838A83E0E0F0E0A2
:1005600012968D919C911397009719F0FD01DC0173
:10057000F7CF8D919C9111979D012E5F3F4F820F78
:10058000931F20914201309143012817390769F4E4
:10059000309729F4109245011092440102C0138251
:1005A0001282B0934301A0934201DF91CF9108954D
:1005B000DC0101C06D9341505040E0F70895F8947C
:0205C000FFCF6B
:1005C2000000460120002D2D2D2D2D2D2D2D2D2D00
:1005D2002D2D2D2D2D2D2D2D2D50524F4752414D6C
:1005E20020535441525456332D2D2D2D2D2D2D2D6A
:0C05F2002D2D2D2D2D2D2D2D2D2D2D000E
:00000001FF
