S01300004279676765726E477232362E7372656322
S11300000C94B4010C94D1010C94D1010C94D10141
S11300100C94D1010C94D1010C94D1010C94D10114
S11300200C94D1010C94D1010C94D1010C94D10104
S11300300C94D1010C94D1010C94D1010C94D101F4
S11300400C94D1010C94D1010C94D1010C94D101E4
S11300500C94D1010C94D1010C94D1010C94D101D4
S11300600C94D1010C94D1010C94D1010C94D101C4
S1130070000000000000000000065F5F06000000B2
S11300800007070007070000147F7F147F7F140018
S1130090242E6B6B3A120000466630180C66620020
S11300A0307A4F5D377A48000407030000000000EF
S11300B0001C3E63410000000041633E1C00000040
S11300C0082A3E1C1C3E2A0808083E3E0808000078
S11300D000A0E0600000000008080808080800000C
S11300E000006060000000006030180C060301008E
S11300F03E7F594D7F3E000042427F7F40400000DA
S1130100627359496F660000226349497F360000D3
S1130110181C16137F7F1000276745457D390000A2
S11301203C7E4B4979300000036371190F070000CE
S1130130367F49497F360000064F49693F1E00005B
S113014000006C6C0000000000A0EC6C00000000DB
S1130150081C366341000000141414141414000025
S1130160004163361C080000020351590F060000C9
S11301703E7F415D5D1F1E007C7E13137E7C00006C
S1130180417F7F49497F36001C3E63414163220021
S1130190417F7F41637F1C00417F7F495D41630054
S11301A0417F7F491D0103001C3E6341517372006E
S11301B07F7F08087F7F000000417F7F41000000AF
S11301C0307040417F3F0100417F7F081C7763000E
S11301D0417F7F41406070007F7F060C067F7F0077
S11301E07F7F060C187F7F001C3E6341633E1C002A
S11301F0417F7F49090F06001E3F21717F5E000089
S1130200417F7F19396F460026674D597B320000C4
S113021003417F7F410300007F7F40407F7F0000D8
S11302201F3F60603F1F00007F7F3018307F7F00DA
S113023063771C081C776300074F78784F0700002A
S11302406773594D47637100007F7F41410000008F
S11302500103060C183060000041417F7F0000005C
S1130260080C0603060C0800808080808080808053
S11302700000030704000000207454543C7840003C
S1130280413F7F44447C3800387C44446C2800005F
S1130290307848493F7F4000387C54545C18000053
S11302A0487E7F490302000098BCA4A4F87C0400A3
S11302B0417F7F08047C780000447D7D400000007D
S11302C040C484FD7D000000417F7F10386C4400F1
S11302D000417F7F400000007C7C0C180C7C78007F
S11302E07C7C04047C780000387C44447C38000026
S11302F084FCF8A4243C1800183C24A4F8FC8400D2
S1130300447C78441C180000485C54547424000055
S113031000043E7F442400003C7C40403C7C400080
S11303201C3C60603C1C00003C7C6030607C3C00F9
S1130330446C3810386C44009CBCA0A0FC7C0000C9
S11303404C64745C4C64000008083E774141000032
S113035000000077770000004141773E0808000064
S1130360020301030203010011241FBECFEFD4E0F6
S1130370DEBFCDBF13E0A0E0B1E0E0EFF0E102C0EA
S113038005900D92A630B107D9F723E0A6E0B3E0BB
S113039001C01D92A232B207E1F70E945F060C94DD
S11303A076080C94000081B3806281BB8FB58364AE
S11303B08FBD8EB589618EBD81B38F7E81BB88B3BD
S11303C0806188BB08950F931F93CF93DF938C01B3
S11303D0EB0160E074E181E00E94440685E08A95C7
S11303E0F1F780E094E10E944806F801818380E0FF
S11303F094E10E944806F801808380E094E10E9421
S11304004806888380E094E10E944806898383ED4E
S113041090E30197F1F700C00000DF91CF911F91A5
S11304200F910895FC0164814581808190E070E022
S11304309B01265F3F4F281739079CF49C01261B1C
S1130440370B54E6529FC001539F900D11242FEF98
S113045030E0D901A61BB70BBD010E948F06628351
S113046014C09B012A503109821793076CF49C0134
S1130470261B370B54E6529FC001539F900D112445
S11304800E948F06628301C01282818190E0642FF2
S113049070E09B01265F3F4F281739079CF49C01AD
S11304A0261B370B44E6429FC001439F900D112445
S11304B02FEF30E0A901461B570BBA010E948F06AB
S11304C0638308959B012A503109821793076CF4C2
S11304D09C01261B370B44E6429FC001439F900DAD
S11304E011240E948F066383089513820895FC01EA
S11304F04281242F042E000C330B33231CF431953A
S113050021953109FC013381832F032E000C990BB3
S113051099231CF4919581959109821780F44333B2
S113052034F087E291E00E94020782E008954E3C95
S1130530C4F48EE291E00E94020783E00895281734
S113054090F4333334F084E391E00E94020780E0B6
S113055008953E3C54F488E391E00E94020781E050
S1130560089584E0089584E0089584E00895CF9385
S1130570DF93EC0160E074E181E00E94440685E0D1
S11305808A95F1F780E094E10E9448068C8380E02C
S113059094E10E9448068D83DF91CF910895849958
S11305A002C081E0089580E008950E949C040E94A6
S11305B0FF0480910E03E82FF0E0EE0FFF1FE25ED0
S11305C0FE4F608171810E94E30586E093E00E9402
S11305D0B7020895CF93DF93EC0164E173E086E002
S11305E093E00E94E30186E093E00E94120286E019
S11305F093E00E94770280932601843069F1813070
S113060061F48881833021F4188281E0898324C0D5
S11306108F5F888381E089831FC081111DC0888119
S1130620811105C083E0888381E0898315C08150EE
S1130630888381E0898310C064E173E086E093E0FD
S11306400E94E30186E093E00E94120286E093E0B8
S11306500E9477028093260180912601843061F7FD
S1130660DF91CF910895CF93DF93C2E1D3E0188255
S11306700E949C040E94220560911601709117014A
S113068088810E94E3050E94CF02882359F00E94CA
S1130690CF028111FCCF80911203833019F40E94A0
S11306A0D5021BC082E193E00E94EA028091130309
S11306B0882349F30E949C040E942205C2E1D3E0EE
S11306C08881E82FF0E0EE0FFF1FEA5EFE4F6081A5
S11306D071810E94E3051982D6CFDF91CF910895ED
S11306E0CF93DF93CCE0D3E018820E949C040E9455
S11306F0450560910E0170910F0188810E94E30508
S11307000E94CF02882359F00E94CF028111FCCFAE
S113071080910C03833019F40E94D5021BC08CE035
S113072093E00E94EA0280910D03882349F30E941A
S11307309C040E944505CCE0D3E08881E82FF0E0DA
S1130740EE0FFF1FE25FFE4F608171810E94E3059F
S11307501982D6CFDF91CF910895CF93DF93C0E173
S1130760D3E018820E949C040E94680560910601EF
S11307707091070188810E94E3050E94CF028823BB
S113078059F00E94CF028111FCCF80911003833075
S113079019F40E94D5021BC080E193E00E94EA0292
S11307A080911103882349F30E949C040E946805E8
S11307B0C0E1D3E08881E82FF0E0EE0FFF1FEA5F8D
S11307C0FE4F608171810E94E3051982D6CFDF91CB
S11307D0CF9108950E94D5020E94CF028823D9F0B8
S11307E00E94CF028111FCCF80910E03813049F029
S11307F028F0823049F0833051F00DC00E94330359
S11308000AC00E94AD0307C00E94700304C00E9486
S11308108B050E94D5028EE093E00E94EA0280914B
S11308200F038823C9F20E949C040E94FF04CEE0B7
S1130830D3E08881E82FF0E0EE0FFF1FE25EFE4F69
S1130840608171810E94E3051982C6CF80930010F4
S11308500895809300120895883018F480550E94FA
S113086026040895CF93882354F0C82F8F700E94D4
S113087026048C2F82958F70805F0E942604CF916E
S11308800895CF93C62F0E942C048C2F0E9432040B
S1130890CF9108950F931F93CF93DF93FC01908121
S11308A090529F35A0F019C0D801EC91F0E0B097B8
S11308B0EE0FFF1FEE0FFF1FEE0FFF1FEC0FFD1FCC
S11308C0E059FF4F84910E942904219603C08F01AF
S11308D0C0E0D0E0C830D1053CF3DF91CF911F9147
S11308E00F9108950F931F93CF93DF938C01C0E072
S11308F0D0E006C0C8018C0F9D1F0E944A042196B7
S1130900F80101900020E9F73197E01BF10BCE17B5
S1130910DF0780F3DF91CF911F910F910895CF935B
S11309200E942C04C0E004C080E00E942904CF5F30
S1130930CC23D4F7CF910895CF93C0E004C08C2F7B
S11309400E948F04CF5FC830D0F3CF9108958EEA10
S11309500E94260481EA0E9426048AED0E9426044D
S113096082E10E94260488EC0E94260488EA0E9400
S113097026048FE30E94260485ED0E94260480E865
S11309800E94260481E80E94260480E50E94260431
S113099089ED0E94260481E20E94260480E20E94DE
S11309A0260482E00E9426048BED0E94260480E344
S11309B00E9426048DEA0E94260480E00E942604F8
S11309C084EA0E94260486EA0E9426048FEA0E9492
S11309D026040E949C0463E283E00E94410489E8A7
S11309E092E00E9472042FEF8FEF9DE1215080402E
S11309F09040E1F700C000000E949C0408950E940A
S1130A009C0468E080E00E9441048EE692E00E942B
S1130A10720468E081E00E9441048CE192E00E944B
S1130A20720468E082E00E94410488E792E00E9438
S1130A30720468E083E00E94410481E892E00E942D
S1130A40720408950E949C0468E080E00E944104BE
S1130A5085E692E00E94720468E081E00E9441040D
S1130A6086E392E00E94720468E082E00E944104FE
S1130A7086E392E00E94720468E083E00E944104ED
S1130A8082E492E00E94720408950E949C0468E04B
S1130A9080E00E94410487E492E00E94720468E0CE
S1130AA081E00E94410486E592E00E94720468E0BD
S1130AB082E00E94410486E392E00E94720468E0AE
S1130AC083E00E94410482E492E00E94720408954B
S1130AD00E949C0468E080E00E94410481E992E065
S1130AE00E94720468E081E00E94410486E292E080
S1130AF00E94720468E082E00E94410486E392E06E
S1130B000E94720468E083E00E94410482E492E05F
S1130B100E94720408950E949C0468E080E00E9490
S1130B20410480EA92E00E9472042FEF8FEF9EE06E
S1130B30215080409040E1F700C0000068E081E06F
S1130B400E9441048BEA92E00E9472042FEF8FEF1F
S1130B509EE0215080409040E1F700C0000068E032
S1130B6082E00E94410484EB92E00E9472042FEF21
S1130B708FEF9EE0215080409040E1F700C00000DC
S1130B8068E083E00E9441048BEB92E00E947204CF
S1130B902FEF8FEF9CE2215080409040E1F700C09E
S1130BA000C068E084E00E94410485EC92E00E9469
S1130BB072042FEF8FEF95E9215080409040E1F7C8
S1130BC000C000000895CF92DF92EF92FF920F933E
S1130BD01F93CF93DF93D82F8B0160E00E944104D1
S1130BE0C0E004C08FEF0E942904CF5FCC23D4F768
S1130BF068E08D2F0E944104C12CD12C1EC0F80145
S1130C00EE0DFF1DE081F0E0B097EE0FFF1FEE0F39
S1130C10FF1FEE0FFF1FEC0FFD1FE059FF4F8491E4
S1130C2080950E942904219602C0C0E0D0E0C8301B
S1130C30D1052CF38FEFC81AD80AF80101900020CF
S1130C40E9F73197E01BF10B7601CE16DF0668F366
S1130C50DF91CF911F910F91FF90EF90DF90CF9094
S1130C60089587B3806B87BB87B3817B87BB81E59E
S1130C708DB988B3806188BB089585B7806885BFC6
S1130C8080B7806280BF0895FB01F05F8083089580
S1130C90905FFC01808108950E943D068FE190E001
S1130CA00E947B060E9482060E94D3010E94A70430
S1130CB00E9431068FEC92E00E94020708950E9480
S1130CC04C062FEF8FEF9EE0215080409040E1F7DB
S1130CD000C000000E94EA03FFCFCF93C82F8A30E0
S1130CE019F48DE00E946D065D9BFECFCCB980E0C7
S1130CF090E0CF91089590BD89B988E18AB98EE8D2
S1130D0080BD089560E070E08DE696E00E94B7062D
S1130D10009721F090931B0380931A03089597FB87
S1130D20072E16F4009407D077FD09D00E94A3067D
S1130D3007FC05D03EF4909581959F4F08957095DA
S1130D4061957F4F0895AA1BBB1B51E107C0AA1FE1
S1130D50BB1FA617B70710F0A61BB70B881F991F58
S1130D605A95A9F780959095BC01CD0108950F93EC
S1130D701F93CF93DF93009731F46115710519F434
S1130D8080E090E03AC08B01EC016EE070E081E01D
S1130D9090E00E943207FC01892B91F380E8838361
S1130DA00115110571F01387028781E8838380910F
S1130DB0180390911903892B21F4F0931903E093FC
S1130DC018032097C9F0D187C08783818260838309
S1130DD080911A0390911B03892B71F4F0931B03E8
S1130DE0E0931A0380911C0390911D03892B21F435
S1130DF0F0931D03E0931C03CF01DF91CF911F916A
S1130E000F9108950F931F93CF93DF93E0911A03EB
S1130E10F0911B03238121FF1BC08C01D0E0C0E0B3
S1130E20F80181918F0160911A0370911B03DB011A
S1130E301896ED91FC911997882331F00995892B27
S1130E4079F3DFEFCFEFECCF8AE00995892B19F026
S1130E508FEF9FEF02C08D2F9C2FDF91CF911F91B9
S1130E600F9108950F931F93CF93DF93869F800173
S1130E70879F100D969F100D1124C8010E944E07E4
S1130E80EC01009729F0A80160E070E00E946F086F
S1130E90CE01DF91CF911F910F9108950F931F936E
S1130EA0CF93DF938230910510F482E090E0E091DB
S1130EB02003F091210320E030E0A0E0B0E030977F
S1130EC019F1408151810281138148175907C8F0F3
S1130ED08417950769F4109731F012960C931297C2
S1130EE013961C9327C0009320031093210322C060
S1130EF02115310519F04217530718F49A01BD0161
S1130F00EF01DF01F801DBCF21153105F9F0281BD2
S1130F10390B2430310580F48A819B816115710578
S1130F2021F0FB019383828304C090932103809377
S1130F302003FE01329644C0FE01E20FF31F8193A9
S1130F40919322503109398328833AC020911E039A
S1130F5030911F03232B41F42091020130910301AE
S1130F6030931F0320931E0320910001309101014F
S1130F702115310541F42DB73EB74091040150913C
S1130F800501241B350BE0911E03F0911F03E217AA
S1130F90F307A0F42E1B3F0B2817390778F0AC0198
S1130FA04E5F5F4F2417350748F04E0F5F1F509375
S1130FB01F0340931E038193919302C0E0E0F0E08D
S1130FC0CF01DF91CF911F910F910895CF93DF93BC
S1130FD0009709F481C0FC01329713821282A09118
S1130FE02003B0912103109781F420813181820F75
S1130FF0931F20911E0330911F032817390751F5C1
S1131000F0931F03E0931E0367C0ED0120E030E07E
S1131010CE17DF0740F44A815B819E0141155105DB
S1131020F1F0EA01F5CFD383C28340815181840F6B
S1131030951FC817D90759F488819981840F951F82
S11310400296918380838A819B8193838283211575
S1131050310529F4F0932103E09320033DC0E90115
S1131060FB83EA8349915991C40FD51FEC17FD07FF
S113107061F480819181840F951F0296E90199831F
S11310808883828193819B838A83E0E0F0E01296D7
S11310908D919C911397009719F0FD01DC01F7CF16
S11310A08D919C9111979D012E5F3F4F820F931F4D
S11310B020911E0330911F032817390769F43097D4
S11310C029F4109221031092200302C01382128289
S11310D0B0931F03A0931E03DF91CF910895DC0109
S11310E001C06D9341505040E0F70895F894FFCF4C
S11310F000002203200018022602360242024702A0
S113110056023602420265023602360242026E027C
S11311101C0278028102040A5249474854000A4CCE
S1131120454654000A5550000A444F574E002D2D91
S11311302D2D2D2D2D2D2D2D2D2D2D2D2D2D2D2DDB
S11311402D2D2D2D2D2D2D2D2D2D2D2D2D2D2D2DCB
S11311502D2D0054686520582D56616C75652069E5
S113116073203A2025640A0054686520592D56617D
S11311706C7565206973203A2025640A00546865FB
S113118020582D706572206973203A2025640A0066
S113119054686520592D706572206973203A2025A2
S11311A0640A0054686520526967687420736C6926
S11311B06465722076616C7565206973203A202518
S11311C0640A00546865204C65667420736C696415
S11311D065722076616C7565206973203A202564F8
S11311E00A0059204E45555452414C204953203A47
S11311F02025640A0058204E45555452414C20493C
S113120053203A2025640A0053454520484947485D
S113121053434F524500524553455420484947488B
S113122053434F524500504C414345484F4C44456D
S113123052004558495400534554204252494748A6
S1131240544E45535300534554204449464649435C
S1131250554C5459004E45572047414D4500504C7C
S113126041592047414D450053455454494E475335
S113127000435245444954530057454C434F4D4550
S113128000534545204849474853434F524553006E
S11312905448414E4B20594F552100544F525354FA
S11312A045494E0044414E49454C00534947564533
S11312B020616B61004D4F544F204D4F544F002D12
S11312C02D2D2D2D2D2D2D2D2D2D2D2D2D2D2D2D4A
S11312D02D2D50524F4752414D2053544152545694
S11312E0332D2D2D2D2D2D2D2D2D2D2D2D2D2D2D24
S10912F02D2D2D2D000040
S9030000FC
