S01300004279676765726E477232362E7372656322
S11300000C94B4010C94D1010C94D1010C949A0574
S11300100C94D1010C94D1010C94D1010C94D10114
S11300200C94D1010C94D1010C94D1010C94D10104
S11300300C94D1010C94D1010C94D1010C94D101F4
S11300400C94D1010C94D1010C94D1010C94D101E4
S11300500C94D1010C94D1010C94D1010C94D101D4
S11300600C94D1010C94D1010C94D1010C94D101C4
S1130070000000000000000000065F5F06000000B2
S11300800007070007070000147F7F147F7F140018
S1130090242E6B6B3A120000466630180C66620020
S11300A0307A4F5D377A48000407030000000000EF
S11300B0001C3E63410000000041633E1C00000040
S11300C0082A3E1C1C3E2A0808083E3E0808000078
S11300D000A0E0600000000008080808080800000C
S11300E000006060000000006030180C060301008E
S11300F03E7F594D7F3E000042427F7F40400000DA
S1130100627359496F660000226349497F360000D3
S1130110181C16137F7F1000276745457D390000A2
S11301203C7E4B4979300000036371190F070000CE
S1130130367F49497F360000064F49693F1E00005B
S113014000006C6C0000000000A0EC6C00000000DB
S1130150081C366341000000141414141414000025
S1130160004163361C080000020351590F060000C9
S11301703E7F415D5D1F1E007C7E13137E7C00006C
S1130180417F7F49497F36001C3E63414163220021
S1130190417F7F41637F1C00417F7F495D41630054
S11301A0417F7F491D0103001C3E6341517372006E
S11301B07F7F08087F7F000000417F7F41000000AF
S11301C0307040417F3F0100417F7F081C7763000E
S11301D0417F7F41406070007F7F060C067F7F0077
S11301E07F7F060C187F7F001C3E6341633E1C002A
S11301F0417F7F49090F06001E3F21717F5E000089
S1130200417F7F19396F460026674D597B320000C4
S113021003417F7F410300007F7F40407F7F0000D8
S11302201F3F60603F1F00007F7F3018307F7F00DA
S113023063771C081C776300074F78784F0700002A
S11302406773594D47637100007F7F41410000008F
S11302500103060C183060000041417F7F0000005C
S1130260080C0603060C0800808080808080808053
S11302700000030704000000207454543C7840003C
S1130280413F7F44447C3800387C44446C2800005F
S1130290307848493F7F4000387C54545C18000053
S11302A0487E7F490302000098BCA4A4F87C0400A3
S11302B0417F7F08047C780000447D7D400000007D
S11302C040C484FD7D000000417F7F10386C4400F1
S11302D000417F7F400000007C7C0C180C7C78007F
S11302E07C7C04047C780000387C44447C38000026
S11302F084FCF8A4243C1800183C24A4F8FC8400D2
S1130300447C78441C180000485C54547424000055
S113031000043E7F442400003C7C40403C7C400080
S11303201C3C60603C1C00003C7C6030607C3C00F9
S1130330446C3810386C44009CBCA0A0FC7C0000C9
S11303404C64745C4C64000008083E774141000032
S113035000000077770000004141773E0808000064
S1130360020301030203010011241FBECFEFD4E0F6
S1130370DEBFCDBF13E0A0E0B1E0E2E8F5E102C0EA
S113038005900D92A434B107D9F723E0A4E4B3E0B7
S113039001C01D92A336B207E1F70E94C5050C9473
S11303A0BF0A0C94000081B3806281BB8FB5836463
S11303B08FBD8EB589618EBD81B38F7E81BB88B3BD
S11303C0806188BB08950F931F93CF93DF938C01B3
S11303D0EB0160E074E181E00E947A0585E08A9592
S11303E0F1F780E094E10E947E05F801818380E0CA
S11303F094E10E947E05F801808380E094E10E94EC
S11304007E05888380E094E10E947E05898383EDE4
S113041090E30197F1F700C00000DF91CF911F91A5
S11304200F910895FC0164814581808190E070E022
S11304309B01265F3F4F281739079CF49C01261B1C
S1130440370B54E6529FC001539F900D11242FEF98
S113045030E0D901A61BB70BBD010E94FA056283E7
S113046014C09B012A503109821793076CF49C0134
S1130470261B370B54E6529FC001539F900D112445
S11304800E94FA05628301C01282818190E0642F88
S113049070E09B01265F3F4F281739079CF49C01AD
S11304A0261B370B44E6429FC001439F900D112445
S11304B02FEF30E0A901461B570BBA010E94FA0541
S11304C0638308959B012A503109821793076CF4C2
S11304D09C01261B370B44E6429FC001439F900DAD
S11304E011240E94FA056383089513820895FC0180
S11304F04281242F042E000C330B33231CF431953A
S113050021953109FC013381832F032E000C990BB3
S113051099231CF49195819591098217B0F4433382
S113052034F086E091E00E94830683E008954E3C17
S113053034F48CE091E00E94830684E0089581E124
S113054091E00E94830685E008952817B0F43333C0
S113055034F089E191E00E94830681E008953E3CF5
S113056034F48CE191E00E94830682E0089581E1F5
S113057091E00E94830685E0089581E191E00E9464
S1130580830685E00895CF93DF93EC0160E074E186
S113059081E00E947A0585E08A95F1F780E094E194
S11305A00E947E058C8380E094E10E947E058D8309
S11305B0DF91CF910895849902C081E0089580E08D
S11305C00895F89486B18E7F86B980E28BBF8EEF52
S11305D086BF78940895CF93C82F0E94E5038C2F8B
S11305E00E94220460E680E60E94D1034FEF63E09C
S11305F08BE20E9408040E94E102CF9108950F93B8
S11306001F93CF93DF938C01FC01608171817695F8
S11306106795769567957695679581E30E94D103F2
S1130620F80160816295660F607E82E30E94D103C7
S1130630F801628185E30E94D103C0E0D0E009C0E3
S1130640F801EC0FFD1F63818C2F8A5C0E94D1039B
S11306502196F801828190E0C817D9078CF30E9493
S11306600004DF91CF911F910F910895FF920F9392
S11306701F93CF93DF938C018CE20E94BF03982FCA
S11306809170F92E80FF30C081E60E94BF03C82F0D
S113069082E60E94BF03D82F85E60E94BF03F801BB
S11306A08283D295D695D7708C2F90E0880F991FAE
S11306B0880F991F880F991F8D0F911D9183808337
S11306C0C0E0D0E009C08C2F8A590E94BF03F80112
S11306D0EC0FFD1F83832196F801828190E0C817F7
S11306E0D9078CF3F12C36C08CE20E94BF0381FF42
S11306F02FC081E70E94BF03C82F82E70E94BF0377
S1130700D82F85E70E94BF03F8018283D295D6953E
S1130710D7708C2F90E0880F991F880F991F880F2E
S1130720991F8D0F911D91838083C0E0D0E009C093
S11307308C2F8A580E94BF03F801EC0FFD1F83839E
S11307402196F801828190E0C817D9078CF302C082
S1130750FF24F3948F2DDF91CF911F910F91FF9080
S113076008950E942A0580EC0E9421050E942E050E
S11307708FEF97E10197F1F700C000000895CF9340
S1130780C82F0E942A0583E00E9421058C2F0E9415
S113079021050E942505C82F0E942E058C2FCF917C
S11307A00895CF93DF93D82FC62F0E942A0582E0A5
S11307B00E9421058D2F0E9421058C2F0E94210566
S11307C00E942E05DF91CF9108950E9415050E9485
S11307D0B1038EE00E94BF03807E803821F08BEF4E
S11307E091E00E94830661EC8AE20E94D10361EFEA
S11307F089E20E94D10365E088E20E94D103089552
S11308000E942A0581E80E9421050E942E05089570
S11308101F93CF93DF93182FD62FC42F0E942A053E
S113082085E00E942105812F0E9421058D2F0E94C1
S113083021058C2F0E9421050E942E05DF91CF9166
S11308401F910895CF93C82F482F60EE8FE00E9428
S113085008048EE00E94BF03807EC81751F08FE227
S113086092E09F938F930E946D060F900F9081E00A
S113087001C080E0CF910895809300100895809383
S113088000120895883018F480550E943C0408959D
S1130890CF93882354F0C82F8F700E943C048C2F70
S11308A082958F70805F0E943C04CF910895CF930E
S11308B0C62F0E9442048C2F0E944804CF910895B1
S11308C00F931F93CF93DF93FC01908190529F3538
S11308D0A0F019C0D801EC91F0E0B097EE0FFF1F23
S11308E0EE0FFF1FEE0FFF1FEC0FFD1FE059FF4F30
S11308F084910E943F04219603C08F01C0E0D0E0A0
S1130900C830D1053CF3DF91CF911F910F91089529
S11309100F931F93CF93DF938C01C0E0D0E006C008
S1130920C8018C0F9D1F0E9460042196F80101905C
S11309300020E9F73197E01BF10BCE17DF0780F3B6
S1130940DF91CF911F910F910895CF930E9442049C
S1130950C0E004C080E00E943F04CF5FCC23D4F702
S1130960CF910895CF93C0E004C08C2F0E94A504BA
S1130970CF5FC830D0F3CF9108958EEA0E943C0433
S113098081EA0E943C048AED0E943C0482E10E94B8
S11309903C0488EC0E943C0488EA0E943C048FE3F7
S11309A00E943C0485ED0E943C0480E80E943C04C3
S11309B081E80E943C0480E50E943C0489ED0E9489
S11309C03C0481E20E943C0480E20E943C0482E0F8
S11309D00E943C048BED0E943C0480E30E943C0492
S11309E08DEA0E943C0480E00E943C0484EA0E9458
S11309F03C0486EA0E943C048FEA0E943C040E9464
S1130A00B20463E283E00E94570485E592E00E9409
S1130A1088042FEF8FEF9DE1215080409040E1F753
S1130A2000C000000E94B204089587B3806B87BBA6
S1130A3087B3817B87BB81E58DB988B3806188BB2F
S1130A4008958FB9779BFECF089580E00E94210519
S1130A508FB1089588B38F7E88BB089588B3806171
S1130A6088BB08950F931F93CF93DF93CDB7DEB761
S1130A702B970FB6F894DEBF0FBECDBF8B0121E0DC
S1130A8030E03A83298328E02B83FC0122812C590E
S1130A902C8323812C592D830E9477028E830E94FC
S1130AA0DB028F8318861986F80180818A87818109
S1130AB08B87CE0101960E94FF022B960FB6F89405
S1130AC0DEBF0FBECDBFDF91CF911F910F9108956F
S1130AD0CF93DF93EC010E94E301CE010E94120246
S1130AE0DF91CF91089585B7806885BF80B7806214
S1130AF080BF0895FB01F05F80830895905FFC013F
S1130B00808108950E9473058FE190E00E94E605BC
S1130B100E94ED050E94D3010E94BD0480E00E9462
S1130B20EB0284E493E00E94C3028EEF92E00E9401
S1130B30830608951F920F920FB60F9211242F93DC
S1130B403F934F935F936F937F938F939F93AF9351
S1130B50BF93EF93FF938EE493E00E94360340E04B
S1130B6063E08CE20E940804FF91EF91BF91AF9182
S1130B709F918F917F916F915F914F913F912F91B1
S1130B800F900FBE0F901F9018950E94820584E36A
S1130B9093E00E9483066AE473E084E493E00E9495
S1130BA068056AE473E084E493E00E943205EFCFC1
S1130BB0CF93C82F8A3019F48DE00E94D8055D9B2D
S1130BC0FECFCCB980E090E0CF91089590BD89B973
S1130BD088E18AB98EE880BD089560E070E088ED10
S1130BE095E00E942206009721F090935C03809385
S1130BF05B03089597FB072E16F4009407D077FD46
S1130C0009D00E940E0607FC05D03EF4909581950C
S1130C109F4F0895709561957F4F0895AA1BBB1B44
S1130C2051E107C0AA1FBB1FA617B70710F0A61BE8
S1130C30B70B881F991F5A95A9F780959095BC0109
S1130C40CD0108950F931F93CF93DF93009731F451
S1130C506115710519F480E090E03AC08B01EC0154
S1130C606EE070E081E090E00E949408FC01892B22
S1130C7091F380E883830115110571F013870287CE
S1130C8081E883838091590390915A03892B21F43D
S1130C90F0935A03E09359032097C9F0D187C08792
S1130CA083818260838380915B0390915C03892BB1
S1130CB071F4F0935C03E0935B0380915D03909186
S1130CC05E03892B21F4F0935E03E0935D03CF016F
S1130CD0DF91CF911F910F910895A0E0B0E0E3E779
S1130CE0F6E00C94980AAE014B5F5F4FFA016191F4
S1130CF07191AF0180915B0390915C030E94B306F4
S1130D00E2E00C94B40A0F931F93CF93DF93E09126
S1130D105B03F0915C03238121FF1BC08C01D0E0B5
S1130D20C0E0F80181918F0160915B0370915C03D5
S1130D30DB011896ED91FC911997882331F0099500
S1130D40892B79F3DFEFCFEFECCF8AE00995892B7C
S1130D5019F08FEF9FEF02C08D2F9C2FDF91CF9161
S1130D601F910F910895ABE0B0E0E9EBF6E00C942D
S1130D70880A6C017B018A01FC0117821682838137
S1130D8081FFCCC1CE0101963C01F6019381F701AC
S1130D9093FD859193FF81917F01882309F4BAC162
S1130DA0853239F493FD859193FF81917F018532DA
S1130DB029F4B60190E00E94EE09E7CF912C212C92
S1130DC0312CFFE1F315D8F08B3279F038F480320E
S1130DD079F08332A1F4232D20611DC08D3261F09E
S1130DE0803369F4232D216016C0832D8260382E50
S1130DF0E32DE4603E2E2AC0F32DF8601DC037FCBD
S1130E002DC020ED280F2A3040F08E32B9F436FC84
S1130E1081C1232D2064322E19C036FE06C08AE01B
S1130E20989E200D1124922E11C0EAE02E9E200DD2
S1130E301124222EF32DF0623F2E08C08C3621F4AB
S1130E40832D8068382E02C0883641F4F70193FD63
S1130E50859193FF81917F018111B3CF982F9F7D5D
S1130E609554933028F40C5F1F4F9FE399830DC072
S1130E70833631F0833771F0833509F059C021C0CE
S1130E80F801808189830E5F1F4F88248394912CFD
S1130E90530113C02801F2E04F0E511CF801A08049
S1130EA0B18036FE03C0692D70E002C06FEF7FEFA2
S1130EB0C5010E94E3094C018201F32DFF773F2E07
S1130EC016C0280122E0420E511CF801A080B18016
S1130ED036FE03C0692D70E002C06FEF7FEFC501DD
S1130EE00E94D1094C01F32DF0683F2E820133FC9E
S1130EF01BC0822D90E088169906B0F4B60180E2FA
S1130F0090E00E94EE092A94F4CFF50137FC859114
S1130F1037FE81915F01B60190E00E94EE09211035
S1130F202A9421E0821A91088114910471F7E8C08F
S1130F30843611F0893641F5F80137FE07C0608127
S1130F407181828193810C5F1F4F08C06081718120
S1130F50072E000C880B990B0E5F1F4FF32DFF76A5
S1130F603F2E97FF09C090958095709561957F4FAE
S1130F708F4F9F4FF0683F2E2AE030E0A3010E947C
S1130F802A0A882E861845C0853731F4232D2F7EF2
S1130F90B22E2AE030E025C0932D997FB92E8F36EA
S1130FA0C1F018F4883579F0B5C0803719F0883766
S1130FB021F0B0C0E92FE061BE2EB4FE0DC0FB2DC0
S1130FC0F460BF2E09C034FE0AC0292F2660B22E59
S1130FD006C028E030E005C020E130E002C020E196
S1130FE032E0F801B7FE07C060817181828193818C
S1130FF00C5F1F4F06C06081718180E090E00E5F3E
S11310001F4FA3010E942A0A882E8618FB2DFF7702
S11310103F2E36FE0DC0232D2E7FA22E891458F4A8
S113102034FE0BC032FC09C0832D8E7EA82E05C071
S1131030B82CA32C03C0B82C01C0B92CA4FE0FC03B
S1131040FE01E80DF11D8081803321F49A2D997EF3
S1131050A92E09C0A2FE06C0B394B39404C08A2D7D
S1131060867809F0B394A3FC11C0A0FE06C0B214A4
S113107088F4280C922C9B180EC0B21460F4B601AC
S113108080E290E00E94EE09B394F7CFB21418F412
S11310902B1802C0982C212CA4FE10C0B60180E3AA
S11310A090E00E94EE09A2FE17C0A1FC03C088E7ED
S11310B090E002C088E590E0B6010CC08A2D8678E5
S11310C059F0A1FE02C08BE201C080E2A7FC8DE2D0
S11310D0B60190E00E94EE09891438F4B60180E369
S11310E090E00E94EE099A94F7CF8A94F301E80DF8
S11310F0F11D8081B60190E00E94EE098110F5CFC8
S1131100222009F442CEB60180E290E00E94EE096A
S11311102A94F6CFF6018681978102C08FEF9FEF64
S11311202B96E2E10C94A40A0F931F93CF93DF93C1
S1131130869F8001879F100D969F100D1124C80172
S11311400E94B008EC01009729F0A80160E070E06B
S11311500E94DC09CE01DF91CF911F910F91089578
S11311600F931F93CF93DF938230910510F482E0A5
S113117090E0E0916103F091620320E030E0A0E0B0
S1131180B0E0309719F140815181028113814817F1
S11311905907C8F08417950769F4109731F012962F
S11311A00C93129713961C9327C00093610310931A
S11311B0620322C02115310519F04217530718F4B0
S11311C09A01BD01EF01DF01F801DBCF21153105E3
S11311D0F9F0281B390B2430310580F48A819B8176
S11311E06115710521F0FB019383828304C0909300
S11311F0620380936103FE01329644C0FE01E20F54
S1131200F31F8193919322503109398328833AC083
S113121020915F0330916003232B41F4209102015C
S1131220309103013093600320935F032091000108
S1131230309101012115310541F42DB73EB740919C
S1131240040150910501241B350BE0915F03F091DB
S11312506003E217F307A0F42E1B3F0B281739078E
S113126078F0AC014E5F5F4F2417350748F04E0FFE
S11312705F1F5093600340935F038193919302C077
S1131280E0E0F0E0CF01DF91CF911F910F9108953D
S1131290CF93DF93009709F481C0FC013297138246
S11312A01282A0916103B0916203109781F42081AE
S11312B03181820F931F20915F03309160032817BF
S11312C0390751F5F0936003E0935F0367C0ED01C4
S11312D020E030E0CE17DF0740F44A815B819E01B5
S11312E041155105F1F0EA01F5CFD383C283408162
S11312F05181840F951FC817D90759F488819981A2
S1131300840F951F0296918380838A819B819383A6
S113131082832115310529F4F0936203E09361037C
S11313203DC0E901FB83EA8349915991C40FD51F5C
S1131330EC17FD0761F480819181840F951F02965B
S1131340E90199838883828193819B838A83E0E086
S1131350F0E012968D919C911397009719F0FD017E
S1131360DC01F7CF8D919C9111979D012E5F3F4F2A
S1131370820F931F20915F03309160032817390770
S113138069F4309729F4109262031092610302C049
S113139013821282B0936003A0935F03DF91CF9115
S11313A00895FC010590615070400110D8F78095B4
S11313B090958E0F9F1F0895DC0101C06D934150DD
S11313C05040E0F70895FC01615070400190011015
S11313D0D8F7809590958E0F9F1F08950F931F93B4
S11313E0CF93DF93FB01238121FD03C08FEF9FEF98
S11313F02CC022FF16C046815781248135814217B3
S1131400530744F4A081B1819D012F5F3F4F318385
S113141020838C93268137812F5F3F4F3783268328
S113142014C08B01EC01FB010084F185E02D0995CA
S1131430892BE1F6D80116968D919C911797019608
S113144017969C938E931697CE01DF91CF911F919F
S11314500F910895FA01AA27283051F1203181F122
S1131460E8946F936E7F6E5F7F4F8F4F9F4FAF4FA8
S1131470B1E03ED0B4E03CD0670F781F891F9A1FBB
S1131480A11D680F791F8A1F911DA11D6A0F711D6F
S1131490811D911DA11D20D009F468943F912AE07B
S11314A0269F11243019305D3193DEF6CF01089563
S11314B0462F4770405D4193B3E00FD0C9F7F6CF94
S11314C0462F4F70405D4A3318F0495D31FD40525C
S11314D0419302D0A9F7EACFB4E0A69597958795F2
S11314E077956795BA95C9F70097610571050895D1
S11314F09B01AC010A2E069457954795379527957D
S1131500BA95C9F7620F731F841F951FA01D089514
S11315102F923F924F925F926F927F928F929F92FF
S1131520AF92BF92CF92DF92EF92FF920F931F93ED
S1131530CF93DF93CDB7DEB7CA1BDB0B0FB6F8949E
S1131540DEBF0FBECDBF09942A88398848885F84DE
S11315506E847D848C849B84AA84B984C884DF804F
S1131560EE80FD800C811B81AA81B981CE0FD11D33
S11315700FB6F894DEBF0FBECDBFED010895F89409
S1051580FFCF97
S11315820000630320005249474854004C45465426
S1131592004E45555452414C00555000444F574E4D
S11315A2002D2D2D2D2D2D2D2D2D2D2D2D2D2D2D92
S11315B22D2D2D2D2D2D2D2D2D2D2D2D2D2D2D2D55
S11315C22D2D2D2D2D0054686520582D56616C75D6
S11315D265206973203A2025640A005468652059FD
S11315E22D56616C7565206973203A2025640A00C2
S11315F254686520582D706572206973203A20253D
S1131602640A0054686520592D706572206973203C
S11316123A2025640A005468652052696768742078
S1131622736C696465722076616C756520697320D8
S11316323A2025640A00546865204C656674207358
S11316426C696465722076616C7565206973203AF1
S11316522025640A0059204E45555452414C2049D4
S113166253203A2025640A0058204E4555545241CD
S11316724C204953203A2025640A00204D4350321D
S1131682353135206973204E4F5420696E20636FC3
S11316926E66696775726174696F6E206D6F6465D9
S11316A22061667465722072657365742021004539
S11316B252524F523A204E4F5420494E20434F52D9
S11316C252454354204F5045524154494F4E414C88
S11316D24D4F44450057454C434F4D4500504C41F6
S11316E2592047414D450053455454494E475300F0
S11316F243524544495453004E45572047414D45B2
S113170200504C414345484F4C44455200455849CA
S11317125400534554204252494748544E4553536A
S11317220053455420444946464943554C545900B4
S1131732534545204849474853434F524553005265
S113174245534554204849474853434F5245005452
S113175248414E4B20594F552100544F5253544542
S1131762494E0044414E49454C0053494756452091
S1131772616B61004D4F544F204D4F544F002D2D3E
S11317822D2D2D2D2D2D2D2D2D2D2D2D2D2D2D2D83
S11317922D50524F4752414D2053544152545633C7
S11317A22D2D2D2D2D2D2D2D2D2D2D2D2D2D2D2D63
S11317B22D2D2D0053656E64696E67206D657373FC
S10717C261676500F2
S9030000FC
