S01300004279676765726E477232362E7372656322
S11300000C94B4010C94D1010C94D1010C944F04C0
S11300100C94D1010C94D1010C94D1010C94D10114
S11300200C94D1010C94D1010C94D1010C94D10104
S11300300C94D1010C94D1010C94D1010C94D101F4
S11300400C94D1010C94D1010C94D1010C94D101E4
S11300500C94D1010C94D1010C94D1010C94D101D4
S11300600C94D1010C94D1010C94D1010C94D101C4
S1130070000000000000000000065F5F06000000B2
S11300800007070007070000147F7F147F7F140018
S1130090242E6B6B3A120000466630180C66620020
S11300A0307A4F5D377A48000407030000000000EF
S11300B0001C3E63410000000041633E1C00000040
S11300C0082A3E1C1C3E2A0808083E3E0808000078
S11300D000A0E0600000000008080808080800000C
S11300E000006060000000006030180C060301008E
S11300F03E7F594D7F3E000042427F7F40400000DA
S1130100627359496F660000226349497F360000D3
S1130110181C16137F7F1000276745457D390000A2
S11301203C7E4B4979300000036371190F070000CE
S1130130367F49497F360000064F49693F1E00005B
S113014000006C6C0000000000A0EC6C00000000DB
S1130150081C366341000000141414141414000025
S1130160004163361C080000020351590F060000C9
S11301703E7F415D5D1F1E007C7E13137E7C00006C
S1130180417F7F49497F36001C3E63414163220021
S1130190417F7F41637F1C00417F7F495D41630054
S11301A0417F7F491D0103001C3E6341517372006E
S11301B07F7F08087F7F000000417F7F41000000AF
S11301C0307040417F3F0100417F7F081C7763000E
S11301D0417F7F41406070007F7F060C067F7F0077
S11301E07F7F060C187F7F001C3E6341633E1C002A
S11301F0417F7F49090F06001E3F21717F5E000089
S1130200417F7F19396F460026674D597B320000C4
S113021003417F7F410300007F7F40407F7F0000D8
S11302201F3F60603F1F00007F7F3018307F7F00DA
S113023063771C081C776300074F78784F0700002A
S11302406773594D47637100007F7F41410000008F
S11302500103060C183060000041417F7F0000005C
S1130260080C0603060C0800808080808080808053
S11302700000030704000000207454543C7840003C
S1130280413F7F44447C3800387C44446C2800005F
S1130290307848493F7F4000387C54545C18000053
S11302A0487E7F490302000098BCA4A4F87C0400A3
S11302B0417F7F08047C780000447D7D400000007D
S11302C040C484FD7D000000417F7F10386C4400F1
S11302D000417F7F400000007C7C0C180C7C78007F
S11302E07C7C04047C780000387C44447C38000026
S11302F084FCF8A4243C1800183C24A4F8FC8400D2
S1130300447C78441C180000485C54547424000055
S113031000043E7F442400003C7C40403C7C400080
S11303201C3C60603C1C00003C7C6030607C3C00F9
S1130330446C3810386C44009CBCA0A0FC7C0000C9
S11303404C64745C4C64000008083E774141000032
S113035000000077770000004141773E0808000064
S1130360020301030203010011241FBECFEFD4E0F6
S1130370DEBFCDBF12E0A0E0B1E0E0E1F3E102C0F6
S113038005900D92AE36B107D9F722E0AEE6B2E0A1
S113039001C01D92A338B207E1F70E947A040C94BD
S11303A086090C94000081B3806281BB8FB583649D
S11303B08FBD8EB589618EBD81B38F7E81BB88B3BD
S11303C0806188BB0895F89486B18E7F86B980E2F7
S11303D08BBF8EEF86BF78940895CF93C82F0E9469
S11303E0E7028C2F0E94240360E680E60E94D30279
S11303F04FEF63E08BE20E940A030E94E301CF9176
S113040008950F931F93CF93DF938C01FC016081B8
S1130410718176956795769567957695679581E36D
S11304200E94D302F80160816295660F607E82E3C8
S11304300E94D302F801628185E30E94D302C0E0E6
S1130440D0E009C0F801EC0FFD1F63818C2F8A5C9A
S11304500E94D3022196F801828190E0C817D9073F
S11304608CF30E940203DF91CF911F910F910895A5
S1130470FF920F931F93CF93DF938C018CE20E9422
S1130480C102982F9170F92E80FF30C081E60E943E
S1130490C102C82F82E60E94C102D82F85E60E94BD
S11304A0C102F8018283D295D695D7708C2F90E043
S11304B0880F991F880F991F880F991F8D0F911D01
S11304C091838083C0E0D0E009C08C2F8A590E94B8
S11304D0C102F801EC0FFD1F83832196F80182818C
S11304E090E0C817D9078CF3F12C36C08CE20E9437
S11304F0C10281FF2FC081E70E94C102C82F82E799
S11305000E94C102D82F85E70E94C102F8018283AC
S1130510D295D695D7708C2F90E0880F991F880FAD
S1130520991F880F991F8D0F911D91838083C0E0BF
S1130530D0E009C08C2F8A580E94C102F801EC0F48
S1130540FD1F83832196F801828190E0C817D907A3
S11305508CF302C0FF24F3948F2DDF91CF911F9170
S11305600F91FF9008950E942C0480EC0E942304B4
S11305700E9430048FEF97E10197F1F700C000006B
S11305800895CF93C82F0E942C0483E00E94230473
S11305908C2F0E9423040E942704C82F0E94300439
S11305A08C2FCF910895CF93DF93D82FC62F0E941D
S11305B02C0482E00E9423048D2F0E9423048C2F9C
S11305C00E9423040E943004DF91CF9108950E9479
S11305D017040E94B3028EE00E94C102807E80381C
S11305E021F086E091E00E944A0561EC8AE20E94D3
S11305F0D30261EF89E20E94D30265E088E20E949F
S1130600D30208950E942C0481E80E9423040E94CE
S1130610300408951F93CF93DF93182FD62FC42F40
S11306200E942C0485E00E942304812F0E9423044D
S11306308D2F0E9423048C2F0E9423040E943004D7
S1130640DF91CF911F910895CF93C82F482F60EE6B
S11306508FE00E940A038EE00E94C102807EC817C8
S113066051F08AE391E09F938F930E9434050F9099
S11306700F9081E001C080E0CF9108958093001035
S11306800895809300120895883018F480550E94CC
S11306903E030895CF93882354F0C82F8F700E948F
S11306A03E038C2F82958F70805F0E943E03CF9112
S11306B00895CF93C62F0E9444038C2F0E944A03AF
S11306C0CF9108950F931F93CF93DF93FC019081F3
S11306D090529F35A0F019C0D801EC91F0E0B0978A
S11306E0EE0FFF1FEE0FFF1FEE0FFF1FEC0FFD1F9E
S11306F0E059FF4F84910E944103219603C08F016A
S1130700C0E0D0E0C830D1053CF3DF91CF911F9118
S11307100F9108950F931F93CF93DF938C01C0E043
S1130720D0E006C0C8018C0F9D1F0E946203219671
S1130730F80101900020E9F73197E01BF10BCE1787
S1130740DF0780F3DF91CF911F910F910895CF932D
S11307500E944403C0E004C080E00E944103CF5FD4
S1130760CC23D4F7CF910895CF93C0E004C08C2F4D
S11307700E94A703CF5FC830D0F3CF9108958EEACB
S11307800E943E0381EA0E943E038AED0E943E03DA
S113079082E10E943E0388EC0E943E0388EA0E94A4
S11307A03E038FE30E943E0385ED0E943E0380E8F2
S11307B00E943E0381E80E943E0380E50E943E03BE
S11307C089ED0E943E0381E20E943E0380E20E9482
S11307D03E0382E00E943E038BED0E943E0380E3D1
S11307E00E943E038DEA0E943E0380E00E943E0385
S11307F084EA0E943E0386EA0E943E038FEA0E9436
S11308003E030E94B40363E283E00E94590380E63E
S113081091E00E948A032FEF8FEF9DE121508040E9
S11308209040E1F700C000000E94B403089587B32C
S1130830806B87BB87B3817B87BB81E58DB988B328
S1130840806188BB08958FB9779BFECF089580E0BF
S11308500E9423048FB1089588B38F7E88BB0895C6
S113086088B3806188BB089585B7806885BF80B7E9
S1130870806280BF08950E9434048FE190E00E945A
S1130880D5040E94DC040E94D3010E94BF0380E4CB
S11308900E94ED0189E092E00E944A0508951F92AA
S11308A00F920FB60F9211242F933F934F935F93A0
S11308B06F937F938F939F93AF93BF93EF93FF9324
S11308C08EE692E00E94380240E063E08CE20E94EF
S11308D00A03FF91EF91BF91AF919F918F917F9107
S11308E06F915F914F913F912F910F900FBE0F9099
S11308F01F901895CF93DF93CDB7DEB72B970FB624
S1130900F894DEBF0FBECDBF0E943B042FEF8FEFE4
S11309109EE0215080409040E1F700C0000080E05C
S113092091E09A83898388E08B838FEF8C8392E2B2
S11309309D8393E39E8394E49F8395E5988796E64D
S1130940998797E79A8798E89B871F928F938FE3FD
S113095092E09F938F930E943405CE0101960E94EA
S113096001028CEC94E00197F1F700C00000809143
S113097071021F928F9385E592E09F938F930E945B
S113098034050FB6F894DEBF0FBECDBFFFCFCF93B3
S1130990C82F8A3019F48DE00E94C7045D9BFECFF6
S11309A0CCB980E090E0CF91089590BD89B988E1F9
S11309B08AB98EE880BD089560E070E087EC94E029
S11309C00E94E904009721F090937C0280937B02BB
S11309D008950F931F93CF93DF93009731F461151C
S11309E0710519F480E090E03AC08B01EC016EE0EF
S11309F070E081E090E00E945B07FC01892B91F399
S1130A0080E883830115110571F01387028781E85B
S1130A1083838091790290917A02892B21F4F09357
S1130A207A02E09379022097C9F0D187C087838145
S1130A308260838380917B0290917C02892B71F484
S1130A40F0937C02E0937B0280917D0290917E0280
S1130A50892B21F4F0937E02E0937D02CF01DF9194
S1130A60CF911F910F910895A0E0B0E0EAE3F5E083
S1130A700C945F09AE014B5F5F4FFA016191719174
S1130A80AF0180917B0290917C020E947A05E2E0A2
S1130A900C947B090F931F93CF93DF93E0917B0218
S1130AA0F0917C02238121FF1BC08C01D0E0C0E0C7
S1130AB0F80181918F0160917B0270917C02DB01CE
S1130AC01896ED91FC911997882331F00995892B9B
S1130AD079F3DFEFCFEFECCF8AE00995892B19F09A
S1130AE08FEF9FEF02C08D2F9C2FDF91CF911F912D
S1130AF00F910895ABE0B0E0E0E8F5E00C944F0905
S1130B006C017B018A01FC0117821682838181FFBB
S1130B10CCC1CE0101963C01F6019381F70193FD0E
S1130B20859193FF81917F01882309F4BAC18532AD
S1130B3039F493FD859193FF81917F01853229F4E6
S1130B40B60190E00E94B508E7CF912C212C312CFE
S1130B50FFE1F315D8F08B3279F038F4803279F074
S1130B608332A1F4232D20611DC08D3261F08033C6
S1130B7069F4232D216016C0832D8260382EE32D65
S1130B80E4603E2E2AC0F32DF8601DC037FC2DC052
S1130B9020ED280F2A3040F08E32B9F436FC81C1A2
S1130BA0232D2064322E19C036FE06C08AE0989E9A
S1130BB0200D1124922E11C0EAE02E9E200D112446
S1130BC0222EF32DF0623F2E08C08C3621F4832DA3
S1130BD08068382E02C0883641F4F70193FD859170
S1130BE093FF81917F018111B3CF982F9F7D9554FD
S1130BF0933028F40C5F1F4F9FE399830DC0833615
S1130C0031F0833771F0833509F059C021C0F80100
S1130C10808189830E5F1F4F88248394912C530114
S1130C2013C02801F2E04F0E511CF801A080B180DE
S1130C3036FE03C0692D70E002C06FEF7FEFC5017F
S1130C400E94AA084C018201F32DFF773F2E16C0A3
S1130C50280122E0420E511CF801A080B18036FE2A
S1130C6003C0692D70E002C06FEF7FEFC5010E94E1
S1130C7098084C01F32DF0683F2E820133FC1BC011
S1130C80822D90E088169906B0F4B60180E290E0D7
S1130C900E94B5082A94F4CFF50137FC859137FEFC
S1130CA081915F01B60190E00E94B50821102A9459
S1130CB021E0821A91088114910471F7E8C0843606
S1130CC011F0893641F5F80137FE07C06081718162
S1130CD0828193810C5F1F4F08C060817181072E50
S1130CE0000C880B990B0E5F1F4FF32DFF763F2EE0
S1130CF097FF09C090958095709561957F4F8F4FB0
S1130D009F4FF0683F2E2AE030E0A3010E94F108D3
S1130D10882E861845C0853731F4232D2F7EB22EB8
S1130D202AE030E025C0932D997FB92E8F36C1F08B
S1130D3018F4883579F0B5C0803719F0883721F078
S1130D40B0C0E92FE061BE2EB4FE0DC0FB2DF460EF
S1130D50BF2E09C034FE0AC0292F2660B22E06C059
S1130D6028E030E005C020E130E002C020E132E0BC
S1130D70F801B7FE07C060817181828193810C5FA5
S1130D801F4F06C06081718180E090E00E5F1F4FAD
S1130D90A3010E94F108882E8618FB2DFF773F2EB1
S1130DA036FE0DC0232D2E7FA22E891458F434FE56
S1130DB00BC032FC09C0832D8E7EA82E05C0B82C32
S1130DC0A32C03C0B82C01C0B92CA4FE0FC0FE0193
S1130DD0E80DF11D8081803321F49A2D997EA92E8E
S1130DE009C0A2FE06C0B394B39404C08A2D8678C9
S1130DF009F0B394A3FC11C0A0FE06C0B21488F499
S1130E00280C922C9B180EC0B21460F4B60180E238
S1130E1090E00E94B508B394F7CFB21418F42B18DD
S1130E2002C0982C212CA4FE10C0B60180E390E0EF
S1130E300E94B508A2FE17C0A1FC03C088E790E099
S1130E4002C088E590E0B6010CC08A2D867859F07E
S1130E50A1FE02C08BE201C080E2A7FC8DE2B601D4
S1130E6090E00E94B508891438F4B60180E390E05C
S1130E700E94B5089A94F7CF8A94F301E80DF11D06
S1130E808081B60190E00E94B5088110F5CF222040
S1130E9009F442CEB60180E290E00E94B5082A949B
S1130EA0F6CFF6018681978102C08FEF9FEF2B96D4
S1130EB0E2E10C946B090F931F93CF93DF93869F0A
S1130EC08001879F100D969F100D1124C8010E9468
S1130ED07707EC01009729F0A80160E070E00E9418
S1130EE0A308CE01DF91CF911F910F9108950F9325
S1130EF01F93CF93DF938230910510F482E090E04A
S1130F00E0918102F091820220E030E0A0E0B0E0C4
S1130F10309719F140815181028113814817590793
S1130F20C8F08417950769F4109731F012960C9362
S1130F30129713961C9327C0009381021093820288
S1130F4022C02115310519F04217530718F49A01EC
S1130F50BD01EF01DF01F801DBCF21153105F9F007
S1130F60281B390B2430310580F48A819B8161155B
S1130F70710521F0FB019383828304C09093820264
S1130F8080938102FE01329644C0FE01E20FF31FFA
S1130F908193919322503109398328833AC0209157
S1130FA07F0230918002232B41F420910201309181
S1130FB003013093800220937F022091000130913D
S1130FC001012115310541F42DB73EB740910401CB
S1130FD050910501241B350BE0917F02F0918002B2
S1130FE0E217F307A0F42E1B3F0B2817390778F0FC
S1130FF0AC014E5F5F4F2417350748F04E0F5F1F5B
S11310005093800240937F028193919302C0E0E069
S1131010F0E0CF01DF91CF911F910F910895CF930D
S1131020DF93009709F481C0FC0132971382128286
S1131030A0918102B0918202109781F420813181C4
S1131040820F931F20917F02309180022817390765
S113105051F5F0938002E0937F0267C0ED0120E038
S113106030E0CE17DF0740F44A815B819E014115D1
S11310705105F1F0EA01F5CFD383C2834081518158
S1131080840F951FC817D90759F488819981840F53
S1131090951F0296918380838A819B8193838283A7
S11310A02115310529F4F0938202E09381023DC0B9
S11310B0E901FB83EA8349915991C40FD51FEC17C9
S11310C0FD0761F480819181840F951F0296E901E7
S11310D099838883828193819B838A83E0E0F0E013
S11310E012968D919C911397009719F0FD01DC01E4
S11310F0F7CF8D919C9111979D012E5F3F4F820FE9
S1131100931F20917F02309180022817390769F4D8
S1131110309729F4109282021092810202C0138245
S11311201282B0938002A0937F02DF91CF91089541
S1131130FC010590615070400110D8F7809590959E
S11311408E0F9F1F0895DC0101C06D9341505040E4
S1131150E0F70895FC016150704001900110D8F748
S1131160809590958E0F9F1F08950F931F93CF9393
S1131170DF93FB01238121FD03C08FEF9FEF2CC080
S113118022FF16C0468157812481358142175307B7
S113119044F4A081B1819D012F5F3F4F31832083AF
S11311A08C93268137812F5F3F4F3783268314C06A
S11311B08B01EC01FB010084F185E02D0995892B5D
S11311C0E1F6D80116968D919C9117970196179682
S11311D09C938E931697CE01DF91CF911F910F911F
S11311E00895FA01AA27283051F1203181F1E894B9
S11311F06F936E7F6E5F7F4F8F4F9F4FAF4FB1E006
S11312003ED0B4E03CD0670F781F891F9A1FA11D00
S1131210680F791F8A1F911DA11D6A0F711D811D01
S1131220911DA11D20D009F468943F912AE0269FC6
S113123011243019305D3193DEF6CF010895462F25
S11312404770405D4193B3E00FD0C9F7F6CF462F06
S11312504F70405D4A3318F0495D31FD405241936F
S113126002D0A9F7EACFB4E0A6959795879577952C
S11312706795BA95C9F700976105710508959B01B3
S1131280AC010A2E06945795479537952795BA953C
S1131290C9F7620F731F841F951FA01D08952F9215
S11312A03F924F925F926F927F928F929F92AF92F2
S11312B0BF92CF92DF92EF92FF920F931F93CF933F
S11312C0DF93CDB7DEB7CA1BDB0B0FB6F894DEBFD6
S11312D00FBECDBF09942A88398848885F846E84FC
S11312E07D848C849B84AA84B984C884DF80EE8046
S11312F0FD800C811B81AA81B981CE0FD11D0FB64F
S1131300F894DEBF0FBECDBFED010895F894FFCF72
S1131310000083022000204D4350323531352069CE
S113132073204E4F5420696E20636F6E6669677533
S1131330726174696F6E206D6F6465206166746597
S1131340722072657365742021004552524F523ADF
S1131350204E4F5420494E20434F5252454354206F
S11313604F5045524154494F4E414C4D4F44450016
S113137057454C434F4D4500504C41592047414D32
S1131380450053455454494E47530043524544493C
S11313905453004E45572047414D4500504C41435E
S11313A045484F4C44455200455849540053455410
S11313B0204252494748544E455353005345542004
S11313C0444946464943554C5459005345452048E1
S11313D049474853434F52455300524553455420BF
S11313E04849474853434F5245005448414E4B20C7
S11313F0594F552100544F52535445494E004441CE
S11314004E49454C00534947564520616B61004D98
S11314104F544F204D4F544F002D2D2D2D2D2D2D3C
S11314202D2D2D2D2D2D2D2D2D2D2D2D50524F4764
S113143052414D20535441525456332D2D2D2D2DB0
S11314402D2D2D2D2D2D2D2D2D2D2D2D2D2D0054CE
S113145068652073656E7420646174612069733AF1
S11314602025780A00546865207072696E7465647A
S111147020646174612069733A2025780A00B3
S9030000FC
