:100000000C94B4010C94D1010C94D1010C943D08D2
:100010000C94D1010C94D1010C94D1010C94D10118
:100020000C94D1010C94D1010C94D1010C94D10108
:100030000C94D1010C94D1010C94D1010C94D101F8
:100040000C94D1010C94D1010C94D1010C94D101E8
:100050000C94D1010C94D1010C94D1010C94D101D8
:100060000C94D1010C94D1010C94D1010C94D101C8
:10007000000000000000000000065F5F06000000B6
:100080000007070007070000147F7F147F7F14001C
:10009000242E6B6B3A120000466630180C66620024
:1000A000307A4F5D377A48000407030000000000F3
:1000B000001C3E63410000000041633E1C00000044
:1000C000082A3E1C1C3E2A0808083E3E080800007C
:1000D00000A0E06000000000080808080808000010
:1000E00000006060000000006030180C0603010092
:1000F0003E7F594D7F3E000042427F7F40400000DE
:10010000627359496F660000226349497F360000D7
:10011000181C16137F7F1000276745457D390000A6
:100120003C7E4B4979300000036371190F070000D2
:10013000367F49497F360000064F49693F1E00005F
:1001400000006C6C0000000000A0EC6C00000000DF
:10015000081C366341000000141414141414000029
:10016000004163361C080000020351590F060000CD
:100170003E7F415D5D1F1E007C7E13137E7C000070
:10018000417F7F49497F36001C3E63414163220025
:10019000417F7F41637F1C00417F7F495D41630058
:1001A000417F7F491D0103001C3E63415173720072
:1001B0007F7F08087F7F000000417F7F41000000B3
:1001C000307040417F3F0100417F7F081C77630012
:1001D000417F7F41406070007F7F060C067F7F007B
:1001E0007F7F060C187F7F001C3E6341633E1C002E
:1001F000417F7F49090F06001E3F21717F5E00008D
:10020000417F7F19396F460026674D597B320000C8
:1002100003417F7F410300007F7F40407F7F0000DC
:100220001F3F60603F1F00007F7F3018307F7F00DE
:1002300063771C081C776300074F78784F0700002E
:100240006773594D47637100007F7F414100000093
:100250000103060C183060000041417F7F00000060
:10026000080C0603060C0800808080808080808057
:100270000000030704000000207454543C78400040
:10028000413F7F44447C3800387C44446C28000063
:10029000307848493F7F4000387C54545C18000057
:1002A000487E7F490302000098BCA4A4F87C0400A7
:1002B000417F7F08047C780000447D7D4000000081
:1002C00040C484FD7D000000417F7F10386C4400F5
:1002D00000417F7F400000007C7C0C180C7C780083
:1002E0007C7C04047C780000387C44447C3800002A
:1002F00084FCF8A4243C1800183C24A4F8FC8400D6
:10030000447C78441C180000485C54547424000059
:1003100000043E7F442400003C7C40403C7C400084
:100320001C3C60603C1C00003C7C6030607C3C00FD
:10033000446C3810386C44009CBCA0A0FC7C0000CD
:100340004C64745C4C64000008083E774141000036
:1003500000000077770000004141773E0808000068
:10036000020301030203010011241FBECFEFD4E0FA
:10037000DEBFCDBF13E0A0E0B1E0ECEAFAE102C0DD
:1003800005900D92A436B107D9F723E0A4E6B3E0B7
:1003900001C01D92A539B207E1F70E9468080C94CC
:1003A000540D0C94000081B3806281BB8FB58364CF
:1003B0008FBD8EB589618EBD81B38F7E81BB88B3C1
:1003C000806188BB08950F931F93CF93DF938C01B7
:1003D000EB0160E074E181E00E941D0885E08A95F0
:1003E000F1F780E094E10E942108F801818380E028
:1003F00094E10E942108F801808380E094E10E944A
:100400002108888380E094E10E942108898383ED9C
:1004100090E30197F1F700C00000DF91CF911F91A9
:100420000F910895FC0164814581808190E070E026
:100430009B01265F3F4F281739079CF49C01261B20
:10044000370B54E6529FC001539F900D11242FEF9C
:1004500030E0D901A61BB70BBD010E948F08628353
:1004600014C09B012A503109821793076CF49C0138
:10047000261B370B54E6529FC001539F900D112449
:100480000E948F08628301C01282818190E0642FF4
:1004900070E09B01265F3F4F281739079CF49C01B1
:1004A000261B370B44E6429FC001439F900D112449
:1004B0002FEF30E0A901461B570BBA010E948F08AD
:1004C000638308959B012A503109821793076CF4C6
:1004D0009C01261B370B44E6429FC001439F900DB1
:1004E00011240E948F086383089513820895FC01EC
:1004F0004281242F042E000C330B33231CF431953E
:1005000021953109FC013381832F032E000C990BB7
:1005100099231CF49195819591098217B0F4433386
:1005200034F087E291E00E94180983E008954E3C80
:1005300034F48DE291E00E94180984E0089582E38A
:1005400091E00E94180985E008952817B0F433332C
:1005500034F08AE391E00E94180981E008953E3C5E
:1005600034F48DE391E00E94180982E0089582E35B
:1005700091E00E94180985E0089582E391E00E94CD
:10058000180985E00895CF93DF93EC0160E074E1F2
:1005900081E00E941D0885E08A95F1F780E094E1F2
:1005A0000E9421088C8380E094E10E9421088D83C1
:1005B000DF91CF910895849902C081E0089580E091
:1005C0000895F89486B18E7F86B980E28BBF8EEF56
:1005D00086BF78940895CF93C82F0E94FB038C2F79
:1005E0000E94380460E680E60E94E7034FEF63E074
:1005F0008BE20E941E040E94E102CF9108950F93A6
:100600001F93CF93DF938C01FC01608171817695FC
:100610006795769567957695679581E30E94E703E0
:10062000F80160816295660F607E82E30E94E703B5
:10063000F801628185E30E94E703C0E0D0E009C0D1
:10064000F801EC0FFD1F63818C2F8A5C0E94E70389
:100650002196F801828190E0C817D9078CF30E9497
:100660001604DF91CF911F910F910895FF920F9380
:100670001F93CF93DF938C018CE20E94D503982FB8
:100680009170F92E80FF30C081E60E94D503C82FFB
:1006900082E60E94D503D82F85E60E94D503F80193
:1006A0008283D295D695D7708C2F90E0880F991FB2
:1006B000880F991F880F991F8D0F911D918380833B
:1006C000C0E0D0E009C08C2F8A590E94D503F80100
:1006D000EC0FFD1F83832196F801828190E0C817FB
:1006E000D9078CF3F12C36C08CE20E94D50381FF30
:1006F0002FC081E70E94D503C82F82E70E94D5034F
:10070000D82F85E70E94D503F8018283D295D6952C
:10071000D7708C2F90E0880F991F880F991F880F32
:10072000991F8D0F911D91838083C0E0D0E009C097
:100730008C2F8A580E94D503F801EC0FFD1F83838C
:100740002196F801828190E0C817D9078CF302C086
:10075000FF24F3948F2DDF91CF911F910F91FF9084
:1007600008950F931F93CF93DF938C01EB01BE018C
:10077000C8010E940B08BE01C8010E94D5078881EC
:100780008B3FA8F3DF91CF911F910F9108950E94A5
:10079000CD0780EC0E94C4070E94D1078FEF97E13C
:1007A0000197F1F700C000000895CF93C82F0E9471
:1007B000CD0783E00E94C4078C2F0E94C4070E94CB
:1007C000C807C82F0E94D1078C2FCF910895CF93CF
:1007D000DF93D82FC62F0E94CD0782E00E94C40766
:1007E0008D2F0E94C4078C2F0E94C4070E94D1073E
:1007F000DF91CF9108950E94B8070E94C7038EE051
:100800000E94D503807E803821F08CE192E00E9426
:10081000180961EC8AE20E94E70361EF89E20E9415
:10082000E70365E088E20E94E70308950E94CD0790
:1008300081E80E94C4070E94D10708951F93CF93B7
:10084000DF93182FD62FC42F0E94CD0785E00E947A
:10085000C407812F0E94C4078D2F0E94C4078C2FCC
:100860000E94C4070E94D107DF91CF911F91089584
:10087000CF93C82F482F60EE8FE00E941E048EE0B9
:100880000E94D503807EC81751F080E592E09F93C7
:100890008F930E9402090F900F9081E001C080E0C9
:1008A000CF9108950E9423060E94860680916C03D2
:1008B000E82FF0E0EE0FFF1FE25EFE4F60817181D6
:1008C0000E946A0784E693E00E94C3020895CF93D2
:1008D000DF93EC0162E773E084E693E00E94E301BA
:1008E00084E693E00E94120284E693E00E9477027D
:1008F00080932601853069F1823061F488818330EC
:1009000021F4188281E0898324C08F5F888381E08D
:1009100089831FC08130E9F48881811105C083E09B
:10092000888381E0898315C08150888381E0898331
:1009300010C062E773E084E693E00E94E30184E67E
:1009400093E00E94120284E693E00E947702809373
:10095000260180912601853061F7DF91CF910895BE
:10096000CF93DF93C0E7D3E018820E9423060E9452
:10097000A906609116017091170188810E946A078B
:100980000E94DB028823A9F00E94DB028111FCCFC8
:1009900080917003882319F0833041F00AC062E728
:1009A00073E084E693E00E94B10303C00E94520406
:1009B0001BC080E793E00E94670480917103882345
:1009C000F9F20E9423060E94A906C0E7D3E08881BD
:1009D000E82FF0E0EE0FFF1FEA5EFE4F60817181AD
:1009E0000E946A071982CCCFDF91CF910895CF93EF
:1009F000DF93CAE6D3E018820E9423060E94CC0649
:100A000060910E0170910F0188810E946A070E9417
:100A1000DB02882359F00E94DB028111FCCF809118
:100A20006A03833019F40E9452041BC08AE693E0E3
:100A30000E94670480916B03882349F30E94230678
:100A40000E94CC06CAE6D3E08881E82FF0E0EE0FE2
:100A5000FF1FE25FFE4F608171810E946A07198269
:100A6000D6CFDF91CF910895CF93DF93CEE6D3E039
:100A700018820E9423060E94EF0660910601709181
:100A8000070188810E946A070E94DB02882359F0CF
:100A90000E94DB028111FCCF80916E03833019F438
:100AA0000E9452041BC08EE693E00E94670480916E
:100AB0006F03882349F30E9423060E94EF06CEE6C7
:100AC000D3E08881E82FF0E0EE0FFF1FEA5FFE4FD2
:100AD000608171810E946A071982D6CFDF91CF9120
:100AE00008950E9452040E94DB028823D9F00E94DC
:100AF000DB028111FCCF80916C03813049F028F03A
:100B0000823049F0833051F00DC00E94B0040AC019
:100B10000E94340507C00E94F70404C00E94120717
:100B20000E9452048CE693E00E94670480916D035A
:100B30008823C9F20E9423060E948606CCE6D3E0F1
:100B40008881E82FF0E0EE0FFF1FE25EFE4F60812C
:100B500071810E946A071982C6CF809300100895A0
:100B6000809300120895883018F480550E94AD05D6
:100B70000895CF93882354F0C82F8F700E94AD053D
:100B80008C2F82958F70805F0E94AD05CF91089564
:100B9000CF93C62F0E94B3058C2F0E94B905CF9129
:100BA00008950F931F93CF93DF93FC019081905290
:100BB0009F35A0F019C0D801EC91F0E0B097EE0F8E
:100BC000FF1FEE0FFF1FEE0FFF1FEC0FFD1FE05981
:100BD000FF4F84910E94B005219603C08F01C0E0B1
:100BE000D0E0C830D1053CF3DF91CF911F910F9138
:100BF00008950F931F93CF93DF938C01C0E0D0E053
:100C000006C0C8018C0F9D1F0E94D1052196F801D6
:100C100001900020E9F73197E01BF10BCE17DF07B9
:100C200080F3DF91CF911F910F910895CF930E9490
:100C3000B305C0E004C080E00E94B005CF5FCC23C4
:100C4000D4F7CF910895CF93C0E004C08C2F0E94B9
:100C50001606CF5FC830D0F3CF9108958EEA0E9478
:100C6000AD0581EA0E94AD058AED0E94AD0582E1E5
:100C70000E94AD0588EC0E94AD0588EA0E94AD0592
:100C80008FE30E94AD0585ED0E94AD0580E80E94CE
:100C9000AD0581E80E94AD0580E50E94AD0589EDB6
:100CA0000E94AD0581E20E94AD0580E20E94AD0583
:100CB00082E00E94AD058BED0E94AD0580E30E94AD
:100CC000AD058DEA0E94AD0580E00E94AD0584EA85
:100CD0000E94AD0586EA0E94AD058FEA0E94AD052F
:100CE0000E94230663E283E00E94C80587EE92E03B
:100CF0000E94F9052FEF8FEF9DE121508040904039
:100D0000E1F700C000000E94230608950E94230618
:100D100068E080E00E94C8058CEC92E00E94F90532
:100D200068E081E00E94C8058AE792E00E94F90528
:100D300068E082E00E94C80586ED92E00E94F90515
:100D400068E083E00E94C8058FED92E00E94F905FB
:100D500008950E94230668E080E00E94C80583ECA5
:100D600092E00E94F90568E081E00E94C80584E9EC
:100D700092E00E94F90568E082E00E94C80584E9DB
:100D800092E00E94F90568E083E00E94C80580EACD
:100D900092E00E94F90508950E94230668E080E031
:100DA0000E94C80585EA92E00E94F90568E081E0AA
:100DB0000E94C80584EB92E00E94F90568E082E099
:100DC0000E94C80584E992E00E94F90568E083E08A
:100DD0000E94C80580EA92E00E94F90508950E94E9
:100DE000230668E080E00E94C8058FEE92E00E9432
:100DF000F90568E081E00E94C80584E892E00E945D
:100E0000F90568E082E00E94C80584E992E00E944A
:100E1000F90568E083E00E94C80580EA92E00E943C
:100E2000F90508950E94230668E080E00E94C80545
:100E30008EEF92E00E94F9052FEF8FEF9EE0215098
:100E400080409040E1F700C0000068E081E00E942F
:100E5000C80589E093E00E94F9052FEF8FEF9EE02F
:100E6000215080409040E1F700C0000068E082E03F
:100E70000E94C80582E193E00E94F9052FEF8FEFF1
:100E80009EE0215080409040E1F700C0000068E003
:100E900083E00E94C80589E193E00E94F9052FEFE5
:100EA0008FEF9CE2215080409040E1F700C000C0ED
:100EB00068E084E00E94C80583E293E00E94F9059F
:100EC0002FEF8FEF95E9215080409040E1F700C06F
:100ED00000000895CF92DF92EF92FF920F931F933D
:100EE000CF93DF93D82F8B0160E00E94C805C0E04C
:100EF00004C08FEF0E94B005CF5FCC23D4F768E029
:100F00008D2F0E94C805C12CD12C1EC0F801EE0DFA
:100F1000FF1DE081F0E0B097EE0FFF1FEE0FFF1F07
:100F2000EE0FFF1FEC0FFD1FE059FF4F84918095DE
:100F30000E94B005219602C0C0E0D0E0C830D105C3
:100F40002CF38FEFC81AD80AF80101900020E9F7B6
:100F50003197E01BF10B7601CE16DF0668F3DF91C7
:100F6000CF911F910F91FF90EF90DF90CF90089558
:100F700087B3806B87BB87B3817B87BB81E58DB9E6
:100F800088B3806188BB08958FB9779BFECF0895A1
:100F900080E00E94C4078FB1089588B38F7E88BB1C
:100FA000089588B3806188BB08950F931F93CF93F2
:100FB000DF93CDB7DEB72B970FB6F894DEBF0FBE29
:100FC000CDBF8B0121E030E03A83298328E02B83D9
:100FD000FC0122812C592C8323812C592D830E94C2
:100FE00077028E830E94DB028F8318861986F801B0
:100FF00080818A8781818B87CE0101960E94FF02C2
:101000002B960FB6F894DEBF0FBECDBFDF91CF9108
:101010001F910F910895CF93DF93EC010E94E3019C
:10102000CE010E941202DF91CF91089585B78068AA
:1010300085BF80B7806280BF0895FB01F05F808329
:101040000895905FFC01808108950E9416088FE149
:1010500090E00E947B080E9482080E94D3010E94B7
:101060002E0680E00E94EB0286E793E00E94C30216
:101070008DE293E00E94180908951F920F920FB617
:101080000F9211242F933F934F935F936F937F930E
:101090008F939F93AF93BF93EF93FF9380E893E079
:1010A0000E94360340E063E08CE20E941E04FF9140
:1010B000EF91BF91AF919F918F917F916F915F91D0
:1010C0004F913F912F910F900FBE0F901F90189549
:1010D0000E9425080E947105FDCFCF93C82F8A304A
:1010E00019F48DE00E946D085D9BFECFCCB980E0C5
:1010F00090E0CF91089590BD89B988E18AB98EE8D2
:1011000080BD089560E070E08DE698E00E94B70829
:10111000009721F090938E0380938D03089597FBA1
:10112000072E16F4009407D077FD09D00E94A3087B
:1011300007FC05D03EF4909581959F4F08957095DA
:1011400061957F4F0895AA1BBB1B51E107C0AA1FE1
:10115000BB1FA617B70710F0A61BB70B881F991F58
:101160005A95A9F780959095BC01CD0108950F93EC
:101170001F93CF93DF93009731F46115710519F434
:1011800080E090E03AC08B01EC016EE070E081E01D
:1011900090E00E94290BFC01892B91F380E8838366
:1011A0000115110571F01387028781E8838380910F
:1011B0008B0390918C03892B21F4F0938C03E093A3
:1011C0008B032097C9F0D187C08783818260838396
:1011D00080918D0390918E03892B71F4F0938E038F
:1011E000E0938D0380918F0390919003892B21F4DC
:1011F000F0939003E0938F03CF01DF91CF911F9184
:101200000F910895A0E0B0E0E8E0F9E00C942D0D16
:10121000AE014B5F5F4FFA0161917191AF01809117
:101220008D0390918E030E944809E2E00C94490DD1
:101230000F931F93CF93DF93E0918D03F0918E0373
:10124000238121FF1BC08C01D0E0C0E0F801819117
:101250008F0160918D0370918E03DB011896ED91E3
:10126000FC911997882331F00995892B79F3DFEFE9
:10127000CFEFECCF8AE00995892B19F08FEF9FEF24
:1012800002C08D2F9C2FDF91CF911F910F91089558
:10129000ABE0B0E0EEE4F9E00C941D0D6C017B01D5
:1012A0008A01FC0117821682838181FFCCC1CE01A5
:1012B00001963C01F6019381F70193FD859193FF1F
:1012C00081917F01882309F4BAC1853239F493FDF5
:1012D000859193FF81917F01853229F4B60190E0D9
:1012E0000E94830CE7CF912C212C312CFFE1F315C8
:1012F000D8F08B3279F038F4803279F08332A1F46F
:10130000232D20611DC08D3261F0803369F4232DBF
:10131000216016C0832D8260382EE32DE4603E2EBE
:101320002AC0F32DF8601DC037FC2DC020ED280F1A
:101330002A3040F08E32B9F436FC81C1232D20646E
:10134000322E19C036FE06C08AE0989E200D112468
:10135000922E11C0EAE02E9E200D1124222EF32D94
:10136000F0623F2E08C08C3621F4832D8068382E21
:1013700002C0883641F4F70193FD859193FF819176
:101380007F018111B3CF982F9F7D9554933028F41E
:101390000C5F1F4F9FE399830DC0833631F0833775
:1013A00071F0833509F059C021C0F801808189832B
:1013B0000E5F1F4F88248394912C530113C0280182
:1013C000F2E04F0E511CF801A080B18036FE03C040
:1013D000692D70E002C06FEF7FEFC5010E94780CAD
:1013E0004C018201F32DFF773F2E16C0280122E029
:1013F000420E511CF801A080B18036FE03C0692D59
:1014000070E002C06FEF7FEFC5010E94660C4C01D7
:10141000F32DF0683F2E820133FC1BC0822D90E03B
:1014200088169906B0F4B60180E290E00E94830C21
:101430002A94F4CFF50137FC859137FE81915F0145
:10144000B60190E00E94830C21102A9421E0821AB8
:1014500091088114910471F7E8C0843611F089363F
:1014600041F5F80137FE07C0608171818281938167
:101470000C5F1F4F08C060817181072E000C880B24
:10148000990B0E5F1F4FF32DFF763F2E97FF09C07C
:1014900090958095709561957F4F8F4F9F4FF06825
:1014A0003F2E2AE030E0A3010E94BF0C882E861850
:1014B00045C0853731F4232D2F7EB22E2AE030E04F
:1014C00025C0932D997FB92E8F36C1F018F4883539
:1014D00079F0B5C0803719F0883721F0B0C0E92F16
:1014E000E061BE2EB4FE0DC0FB2DF460BF2E09C01E
:1014F00034FE0AC0292F2660B22E06C028E030E054
:1015000005C020E130E002C020E132E0F801B7FE82
:1015100007C060817181828193810C5F1F4F06C07B
:101520006081718180E090E00E5F1F4FA3010E94F7
:10153000BF0C882E8618FB2DFF773F2E36FE0DC080
:10154000232D2E7FA22E891458F434FE0BC032FCBA
:1015500009C0832D8E7EA82E05C0B82CA32C03C0F5
:10156000B82C01C0B92CA4FE0FC0FE01E80DF11D7E
:101570008081803321F49A2D997EA92E09C0A2FE84
:1015800006C0B394B39404C08A2D867809F0B3944E
:10159000A3FC11C0A0FE06C0B21488F4280C922C43
:1015A0009B180EC0B21460F4B60180E290E00E9475
:1015B000830CB394F7CFB21418F42B1802C0982CF4
:1015C000212CA4FE10C0B60180E390E00E94830CA1
:1015D000A2FE17C0A1FC03C088E790E002C088E526
:1015E00090E0B6010CC08A2D867859F0A1FE02C0A9
:1015F0008BE201C080E2A7FC8DE2B60190E00E9480
:10160000830C891438F4B60180E390E00E94830CC7
:101610009A94F7CF8A94F301E80DF11D8081B60109
:1016200090E00E94830C8110F5CF222009F442CE75
:10163000B60180E290E00E94830C2A94F6CFF60176
:101640008681978102C08FEF9FEF2B96E2E10C9489
:10165000390D0F931F93CF93DF93869F8001879F50
:10166000100D969F100D1124C8010E94450BEC012E
:10167000009729F0A80160E070E00E94710CCE0193
:10168000DF91CF911F910F9108950F931F93CF93E7
:10169000DF938230910510F482E090E0E0919303B3
:1016A000F091940320E030E0A0E0B0E0309719F131
:1016B000408151810281138148175907C8F084176E
:1016C000950769F4109731F012960C9312971396C0
:1016D0001C9327C0009393031093940322C02115F9
:1016E000310519F04217530718F49A01BD01EF01B3
:1016F000DF01F801DBCF21153105F9F0281B390B8B
:101700002430310580F48A819B816115710521F0B7
:10171000FB019383828304C090939403809393038B
:10172000FE01329644C0FE01E20FF31F81939193B4
:1017300022503109398328833AC020919103309196
:101740009203232B41F42091020130910301309345
:101750009203209391032091000130910101211502
:10176000310541F42DB73EB7409104015091050178
:10177000241B350BE0919103F0919203E217F307DC
:10178000A0F42E1B3F0B2817390778F0AC014E5FF1
:101790005F4F2417350748F04E0F5F1F5093920399
:1017A000409391038193919302C0E0E0F0E0CF0178
:1017B000DF91CF911F910F910895CF93DF93009701
:1017C00009F481C0FC01329713821282A091930325
:1017D000B0919403109781F420813181820F931F7F
:1017E00020919103309192032817390751F5F09316
:1017F0009203E093910367C0ED0120E030E0CE1743
:10180000DF0740F44A815B819E0141155105F1F0EB
:10181000EA01F5CFD383C28340815181840F951FA4
:10182000C817D90759F488819981840F951F0296AA
:10183000918380838A819B819383828321153105E3
:1018400029F4F0939403E09393033DC0E901FB83F3
:10185000EA8349915991C40FD51FEC17FD0761F434
:1018600080819181840F951F0296E9019983888375
:10187000828193819B838A83E0E0F0E012968D91D0
:101880009C911397009719F0FD01DC01F7CF8D9122
:101890009C9111979D012E5F3F4F820F931F2091C6
:1018A0009103309192032817390769F4309729F48E
:1018B000109294031092930302C013821282B09389
:1018C0009203A0939103DF91CF910895FC010590BD
:1018D000615070400110D8F7809590958E0F9F1F32
:1018E0000895DC0101C06D9341505040E0F7089528
:1018F000FC016150704001900110D8F780959095DF
:101900008E0F9F1F08950F931F93CF93DF93FB01BB
:10191000238121FD03C08FEF9FEF2CC022FF16C053
:1019200046815781248135814217530744F4A081B1
:10193000B1819D012F5F3F4F318320838C9326819E
:1019400037812F5F3F4F3783268314C08B01EC0113
:10195000FB010084F185E02D0995892BE1F6D80182
:1019600016968D919C911797019617969C938E933E
:101970001697CE01DF91CF911F910F910895FA0133
:10198000AA27283051F1203181F1E8946F936E7FBE
:101990006E5F7F4F8F4F9F4FAF4FB1E03ED0B4E0AF
:1019A0003CD0670F781F891F9A1FA11D680F791FF0
:1019B0008A1F911DA11D6A0F711D811D911DA11D01
:1019C00020D009F468943F912AE0269F1124301911
:1019D000305D3193DEF6CF010895462F4770405DAC
:1019E0004193B3E00FD0C9F7F6CF462F4F70405D5B
:1019F0004A3318F0495D31FD4052419302D0A9F7B6
:101A0000EACFB4E0A6959795879577956795BA95AF
:101A1000C9F700976105710508959B01AC010A2E75
:101A200006945795479537952795BA95C9F7620F4C
:101A3000731F841F951FA01D08952F923F924F92F0
:101A40005F926F927F928F929F92AF92BF92CF924E
:101A5000DF92EF92FF920F931F93CF93DF93CDB757
:101A6000DEB7CA1BDB0B0FB6F894DEBF0FBECDBFCF
:101A700009942A88398848885F846E847D848C84A0
:101A80009B84AA84B984C884DF80EE80FD800C81A9
:101A90001B81AA81B981CE0FD11D0FB6F894DEBF8C
:0C1AA0000FBECDBFED010895F894FFCFFC
:101AAC00000095032000760284029402A002A50295
:101ABC00B4029402A002C30294029402A002CC02CB
:101ACC007A02D602DF02055249474854004C45467B
:101ADC0054004E45555452414C00555000444F57FC
:101AEC004E002D2D2D2D2D2D2D2D2D2D2D2D2D2D26
:101AFC002D2D2D2D2D2D2D2D2D2D2D2D2D2D2D2D0A
:101B0C002D2D2D2D2D2D0054686520582D56616CD2
:101B1C007565206973203A2025640A005468652095
:101B2C00592D56616C7565206973203A2025640A1D
:101B3C000054686520582D706572206973203A2016
:101B4C0025640A0054686520592D706572206973EC
:101B5C00203A2025640A005468652052696768742D
:101B6C0020736C696465722076616C75652069738D
:101B7C00203A2025640A00546865204C6566742060
:101B8C00736C696465722076616C7565206973206D
:101B9C003A2025640A0059204E45555452414C2098
:101BAC004953203A2025640A0058204E455554527A
:101BBC00414C204953203A2025640A00204D4350C3
:101BCC0032353135206973204E4F5420696E2063B5
:101BDC006F6E66696775726174696F6E206D6F6484
:101BEC0065206166746572207265736574202100CE
:101BFC004552524F523A204E4F5420494E20434F9B
:101C0C005252454354204F5045524154494F4E4136
:101C1C004C4D4F4445005345452048494748534394
:101C2C004F52450052455345542048494748534369
:101C3C004F524500504C414345484F4C444552008F
:101C4C004558495400534554204252494748544E34
:101C5C004553530053455420444946464943554C3B
:101C6C005459004E45572047414D4500504C415961
:101C7C002047414D450053455454494E475300436A
:101C8C005245444954530057454C434F4D4500531E
:101C9C004545204849474853434F52455300544803
:101CAC00414E4B20594F552100544F5253544549E6
:101CBC004E0044414E49454C00534947564520611E
:101CCC006B61004D4F544F204D4F544F002D2D2D17
:101CDC002D2D2D2D2D2D2D2D2D2D2D2D2D2D2D2D28
:101CEC0050524F4752414D20535441525456332D6C
:101CFC002D2D2D2D2D2D2D2D2D2D2D2D2D2D2D2D08
:041D0C002D2D000079
:00000001FF
